:020000040800F2
:10000000E82300209D0100084B1100083D10000866
:1000100049110008E9030008BD3500080000000090
:100020000000000000000000000000003133000864
:10003000F903000800000000670300081121000810
:10004000D7010008D7010008D7010008D701000830
:10005000D7010008D7010008D7010008D701000820
:10006000D7010008D7010008D7010008D701000810
:10007000D7010008D7010008D7010008D701000800
:10008000D7010008D7010008D7010008D7010008F0
:10009000D7010008D7010008D7010008D7010008E0
:1000A000D7010008D7010008D7010008D7010008D0
:1000B000D7010008D7010008D7010008D7010008C0
:1000C000D7010008D7010008D7010008D7010008B0
:1000D000D7010008D7010008D7010008D7010008A0
:1000E000D7010008D7010008D7010008D701000890
:1000F000D7010008D7010008D7010008D701000880
:10010000D7010008D7010008D7010008D70100086F
:10011000D7010008D7010008D7010008DD33000827
:10012000D7010008D7010008D7010008D70100084F
:10013000D7010008D7010008D7010008D70100083F
:10014000D7010008D7010008D7010008D70100082F
:10015000D7010008D7010008D7010008D70100081F
:10016000D7010008D7010008D7010008D70100080F
:10017000D7010008D7010008D701000800000000DF
:10018000D7010008D7010008DFF80CD000F0A8F86C
:100190000048004745360008E8230020DFF8380013
:1001A000016841F470010160BFF34F8FDFF82C004C
:1001B000016821F040410160BFF36F8F084880471C
:1001C00008480047FEE7FEE7FEE7FEE7FEE7FEE73A
:1001D000FEE7FEE7FEE7FEE788ED00E034EF00E033
:1001E000CD3300088901000872B6704762B67047C7
:1001F000EFF3108072B6704780F31088704730BFFD
:10020000704720BF7047B0FA80F0704790FAA0F0B6
:10021000B0FA80F0704790FAA0F070472DE9F05FD7
:100220000546002092469B46884606468146402465
:100230001BE0284641464746224600F041F8534617
:100240005A46C01A914110D311461846224600F072
:1002500028F82D1A67EB01084F462246012000219D
:1002600000F01FF817EB00094E41201EA4F1010415
:10027000DFDC484631462A464346BDE8F09FD2B20D
:1002800001E000F8012B491EFBD270470022F6E77F
:1002900010B513460A4604461946FFF7F0FF2046FC
:1002A00010BD202A04DB203A00FA02F1002070473A
:1002B0009140C2F1200320FA03F3194390407047A4
:1002C000202A04DB203A21FA02F00021704721FAAB
:1002D00002F3D040C2F12002914008431946704712
:1002E000064C074D06E0E06840F0010394E8070083
:1002F00098471034AC42F6D3FFF74AFF783700082E
:1003000098370008EFF3098141B1F1EE101A40F877
:10031000041D20ED200A24490A6810607047B0ECE3
:10032000200A02C8E1EE101A20490A6810607047DE
:100330001F484FF0FF010170002080F309881D481D
:10034000016881F308881C484FF08051016062B653
:10035000FEE719484FF080510160704716484FF092
:1003600080510160704772B6EFF3098028B12038E0
:1003700080E8F00F0C490968086000B50F48804715
:100380005DF804EB0E480F490A78027006480749E9
:100390000A680260106890E8F00F203080F3098846
:1003A0004EF0F40E62B67047D0000020D40000205A
:1003B00022ED00E0D800002004ED00E0C51F000899
:1003C0005200002053000020AFF3008010B500F071
:1003D00091FA04490968BDE81040B0FBF1F001F062
:1003E000A9BE000050370008FEE700000148406841
:1003F00070470000001000E0704772B6FEE7000092
:100400002DE9F84FDFF8BCA1002201250AF1040B09
:1004100003264FF00F090BF1040E00BF0B6805FA1D
:1004200002F42340A34270D10F7907F00307012F94
:1004300001D0022F16D187684FEA420806FA08FC5D
:1004400027EA0C07D1F80CC00CFA08FC4CEA070CA0
:10045000C0F808C04768A7430C79C4F3001494405F
:100460003C4344600C79E443A4070AD0C4684FEAD3
:10047000420C06FA0CF7BC438F6807FA0CF72743C7
:10048000C7600C7904F00304022C12D1D40800EBED
:10049000840CDCF820405707FF0E09FA07F824EA1D
:1004A0000804D1F8108008FA07F848EA0408CCF8E4
:1004B000208004684FEA420C06FA0CF7BC430F791F
:1004C00007F0030707FA0CF7274307604C6814F49A
:1004D000403F70D03C4C276847F480472760246831
:1004E00022F0030704F480440094384C07EB040C1A
:1004F000DCF8084897074FEA177809FA08F7BC4371
:10050000334FB84202D1002724E054E0314FB842C3
:1005100001D101271EE0304FB84201D1022719E076
:100520002E4FB84201D1032714E02D4FB84201D11C
:1005300004270FE02B4FB84201D105270AE02A4FCC
:10054000B84201D1062705E0284FB84201D107275C
:1005500000E0082707FA08F72743CCF80878DAF80C
:1005600000405746D1F804C09C435FEACC3C00D51C
:100570001C433C60DBF800405F46D1F804C09C435C
:100580005FEA8C3C00D51C433C60DEF800407746B7
:10059000D1F804C09C435FEACC2C00D51C433C60DE
:1005A000084F0C373C68D1F804C09C435FEA8C2CA0
:1005B00000D51C433C60521C102AFFF42FAFBDE84D
:1005C000F88F0000003C01404438024000300140F8
:1005D000000002400004024000080240000C0240FB
:1005E000001002400014024000180240001C0240AB
:1005F000426921EA02030A4043EA024181617047ED
:100600000AB1816170470904FBE700000148806876
:100610007047000000000020024881680278114401
:1006200081607047000000200B4810B5016841F45C
:1006300000710160016841F480610160016841F46A
:1006400080710160032000F089F80F2000F006F8A7
:1006500000F03EF8002010BD003C024010B50146FD
:1006600088B00022372000F059F8372000F048F811
:1006700013480024016841F020010160006805A9C9
:1006800000F020000690684600F014F900F038F9F8
:100690000C494000B0FBF1F10C480B4A491E0260C6
:1006A00040F2E732C0E90324C0E9011400F030FB56
:1006B00010B1012008B010BD044800F057FBF9E765
:1006C0004038024040420F0000140040200100204A
:1006D0000A4808B5016841F480410160006800F4EF
:1006E000804000900548001F016841F08051016082
:1006F000006800F08050009008BD000044380240BF
:10070000002809DB00F01F02012191404009800010
:1007100000F1E020C0F8001170470000F0B40E4B6B
:100720001B680C46C3F30223C3F10705042D00D94F
:100730000425191D072901D2002300E0DB1E012634
:1007400006FA05F1491E214099409E40761E16404A
:100750003143F0BC02F033BF0CED00E0064900F07D
:10076000070208684FF6FF03184040EA0220034AD8
:1007700010430860704700000CED00E00000FA052F
:100780002DE9F0470E46050065D0DFF81481D8F852
:100790000000F7B200F00700B04207D288F80070FE
:1007A000D8F8000000F00700B04254D128683D4C52
:1007B000810712D5400703D5206840F4E05020603F
:1007C0002878000703D5206840F460402060206846
:1007D000A96820F0F000084320602878C0072DD0D9
:1007E000304968680839012812D0022813D003283C
:1007F00011D00968890700292DDA216821F0030149
:1008000001432160FFF702FF814641F2883A0EE082
:1008100009688903EFE709688901ECE7FFF7F6FE4D
:10082000A0EB0901514502D90320BDE8F0872068FB
:10083000696800F00C00B0EB810FEFD1D8F8001020
:10084000404601F00701B14207D90770006800F087
:100850000700B04201D00120E7E72878400705D51E
:100860002068E96820F4E0500843206028780007F9
:1008700006D52068296920F4604040EAC100206064
:1008800000F05EF82168084AC1F30311515CC840CA
:100890000649086006480068FFF7E0FE0020C4E74C
:1008A000003C024008380240043700080C000020D9
:1008B000040000200F2202600C4A136803F00303B7
:1008C0004360136803F0F0038360136803F4E0539C
:1008D000C36012684FF4E05303EAD2020261044895
:1008E000006800F007000860704700000838024008
:1008F000003C024001480068704700000C000020E6
:100900000448054900680968044AC1F38221515C22
:10091000C84070470C000020083802401437000817
:100920000448054900680968044AC1F34231515C32
:10093000C84070470C0000200838024014370008F7
:10094000154810B5006810F00C02144813D041107F
:10095000042A0FD0082A0ED10F4C241F22682368C6
:1009600002F03F025B0207D52068C0F38810A0FBAD
:10097000010106E0084610BD2168C1F38811A1FB02
:1009800000010023FFF74AFC2168C1F30141491C23
:100990004900B0FBF1F010BD083802400024F4001B
:1009A0002DE9F84F04006ED02078DFF84C93C00793
:1009B000A9F104054AD009F104000168C1F38101DD
:1009C000012908D00068C0F3810002280AD1D9F8B3
:1009D0000000400206D52868800337D560680028EB
:1009E000E1D033E06068B0F5803F10D0B0F5A02FC3
:1009F000286810D020F480302860286820F48020F7
:100A000028606068A8B1FFF701FE06460DE028687F
:100A100040F48030F4E740F480202860F7E700BF1E
:100A2000FFF7F4FD801B642873D828688003F7D58E
:100A30000CE0FFF7EBFD064605E000BFFFF7E6FD23
:100A4000801B6428F0D828688003F7D42078DFF86A
:100A5000AC8280074FF0000A3ED5A748001D016810
:100A600011F00C0F08D00068C0F3810002280BD1F0
:100A7000D9F80000400207D42868800716D5E0683E
:100A8000012800D112E033E1E068B8B10120C8F8D4
:100A90000000FFF7BBFD064605E000BFFFF7B6FD0F
:100AA000801B0228C0D828688007F7D528682169EC
:100AB00020F0F80040EAC10028600DE0C8F800A06E
:100AC000FFF7A4FD064604E0FFF7A0FD801B022807
:100AD0001FD828688007F7D42078000722D5864FD2
:100AE00087486169703771B101210160FFF78EFDA0
:100AF000064604E0FFF78AFD801B022809D8386803
:100B00008007F7D50EE0C0F800A0FFF77FFD06468E
:100B100005E082E0FFF77AFD801B02287DD8386867
:100B20008007F7D42078400768D5DFF8CCB10027DC
:100B30000BF13C0BDBF80000C0000BD4DBF800101D
:100B400041F08051CBF80010DBF80000012700F0E5
:100B5000805000906B4E3068C00510D4306840F46F
:100B600080703060FFF752FD009005E0FFF74EFD0A
:100B70000099401A022850D83068C005F6D55E4E5C
:100B8000A0686C3601280FD00528306810D020F0FE
:100B900001003060306820F004003060A068B8B117
:100BA000FFF734FD00900FE0306840F00100F4E7FB
:100BB00040F004003060F7E7FFF728FD0099411A84
:100BC00041F28830814266D830688007F4D50EE063
:100BD000FFF71CFD009007E0FFF718FD0099411A90
:100BE00041F28830814256D830688007F4D42FB162
:100BF000DBF8001021F08051CBF80010A069C8B3D9
:100C00003D49091D0968C1F3810102294AD0022822
:100C1000504607D0C8F8600000E03CE0FFF7F6FC63
:100C200004463BE04746C8F86000FFF7EFFC064685
:100C300005E000BFFFF7EAFC801B02282BD82868DC
:100C40008001F7D4D4E907010843A16A2E4A490874
:100C500002EB0141626A41EA8211084394F82C10C8
:100C600040EA0161C9F8001001203866FFF7CEFCA8
:100C7000044606E03EE000BFFFF7C8FC001B022868
:100C800009D828688001F7D534E000BFFFF7BEFC23
:100C9000001B022802D90320BDE8F88F28688001D4
:100CA000F4D427E00128F7D0D9F80000E26900F475
:100CB000800191421CD1226A00F03F01914217D17C
:100CC00047F6C071626A0140B1EB821F10D1A26A7F
:100CD0004FF0FF3300F4403103EB5202B1EB024F0F
:100CE00006D194F82C1000F07060B0EB016F01D0C9
:100CF0000120D1E70020CFE704380240000047423E
:100D0000800E4742007000400000FFFF70477047B0
:100D100010B5040003D094F83D0010B107E00120A5
:100D200010BD002084F83C00204600F01EF8022090
:100D300084F83D00211D206802F056FB012084F854
:100D4000460084F83E0084F83F0084F8400084F8B0
:100D5000410084F8420084F8430084F8440084F899
:100D6000450084F83D00002010BD704790F83D100C
:100D7000012901D001207047022180F83D1001684F
:100D8000CA6842F00102CA6000681149884214D062
:100D9000B0F1804F11D00F4988420ED00E498842E1
:100DA0000BD00E49884208D00D49884205D00D4924
:100DB000884202D00C49884204D1816801F00701C1
:100DC000062903D0016841F001010160002070474D
:100DD000000001400004004000080040000C0040FA
:100DE000000401400040014000180040704770B509
:100DF0000446006801694FF00005C943890715D40E
:100E0000C168C943890711D4E91E01610120207717
:100E1000206880698007204602D0FFF7E7FF04E0E2
:100E200000F098F8204600F096F8257720680169D0
:100E3000C943490717D4C168C943490713D46FF0A0
:100E400004010161022020772068806910F4407F4E
:100E5000204602D0FFF7CAFF04E000F07BF82046EE
:100E600000F079F8257720680169C943090716D48D
:100E7000C168C943090712D46FF008010161042059
:100E800020772068C0698007204602D0FFF7AEFFB8
:100E900004E000F05FF8204600F05DF82577206858
:100EA0000169C943C90617D4C168C943C90613D427
:100EB0006FF010010161082020772068C06910F4EC
:100EC000407F204602D0FFF791FF04E000F042F897
:100ED000204600F040F8257720680169C943C9071A
:100EE00008D1C168C943C90704D1891E01612046E0
:100EF00000F032F820680169C943090609D4C168C5
:100F0000C943090605D46FF0800101612046FFF74F
:100F1000FDFE20680169C943490609D4C168C94377
:100F2000490605D46FF040010161204600F01EF82B
:100F300020680169C94389060BD4C168C943890681
:100F400007D46FF0200101612046BDE87040FFF733
:100F5000DEBE70BD7047704700680349884201D10A
:100F6000FFF75ABB7047000000140040704770B58F
:100F7000040004D094F83D00002510B106E00120E3
:100F800070BD84F83C50204600F022F8242084F8FC
:100F90003D002068C16821F40051C160204602F084
:100FA00087FA2068016921F4904101612068416954
:100FB00021F02A0141612068C16841F40051C160FB
:100FC0002564202084F83D0084F83E00002070BD98
:100FD00010B586B0044614216846FFF757F9144946
:100FE0002068884221D113480021026842F0100293
:100FF0000260006800F0100005900E481438026886
:1010000042F001020260006800F0010005904FF418
:10101000C06000900220CDE9010103200390072069
:10102000049069460448FFF7EBF906B010BD0000D4
:10103000001001404438024000000240FEE700007A
:1010400070B586B014216846FFF720F916480024D1
:10105000016841F020010160016801F02001059163
:10106000016841F080010160016801F08001059193
:10107000016841F00101016000680C4E00F00100C0
:101080004FF4C0650590002229463046FFF7B8FAB4
:1010900001200095CDE90104694630460394FFF72D
:1010A000AFF906B070BD00003038024000140240B5
:1010B00030B58BB009A800F053F8FFF799F800217C
:1010C000044609AA032005910691CDE90702802272
:1010D0000C230A4DCDE90232CDE9000504910B46FF
:1010E000074A08A1A5F1B80000F048FC2046FFF728
:1010F00083F809A800F066FB0BB030BD2002002089
:101100005D3600087374617274207461736B000043
:101110000C4810B50A4901604FF4E13141600021EB
:1011200081600C22C160C0E904128161C161FFF7D6
:101130001EFF002803D0BDE81040FFF75EB910BDC8
:1011400000100140DC000020FEE7FEE770470000D1
:1011500002480068002800D00047704724000020A3
:1011600010B5044600F0A8F83E480021484A017036
:101170003D4801703D4801703D4801603D480160B7
:101180003D4801703D4801703D4801703D48016097
:101190003D4801603D480160106830B13D4800683D
:1011A00018B1126802C0521EFCD13B4801603B4896
:1011B00001603B4801603B4801603B4801603B489F
:1011C00001603B4801603B48017001F007FA01F003
:1011D0003DFA204600F0C4FF2088002841D1204677
:1011E00001F012F8208800283BD1204601F018F8C1
:1011F0002088002835D1204601F07AF82088002880
:101200002FD1204601F016FA2088002829D1204647
:1012100001F0D2FA2088002823D1204601F074FC86
:10122000208800281DD1204600F0BAFF2088002821
:1012300017D1204601F014FF2088002811D1204644
:1012400001F0C2FB208800280BD1204601F062FF8C
:101250002088002805D100F081FFBDE81040FFF78D
:1012600075BF10BD38000020390000206C00002040
:10127000D0000020D40000205200002053000020A5
:10128000540000206000002064000020680000205E
:101290002C37000828370008180000201C00002008
:1012A0002000002024000020280000202C00002026
:1012B000300000209A0000200548064900680968AF
:1012C00000EB8100044920F007000860704700002F
:1012D000283700082C370008D8000020184810B51F
:1012E000007801282BD1FEF783FF044615480178CA
:1012F00001B3491E11F0FF0101701BD112480078A3
:10130000C0B901F059F911490870114900EB4000CA
:1013100051F820100F4801600F480068814209D041
:1013200051F8840F401C08600C480168491C01609A
:10133000FFF714F82046BDE81040FEF75DBF10BD72
:1013400039000020380000206C00002053000020ED
:10135000941A0020D4000020D0000020900000202B
:101360002DE9F041044616480E461546007810B1A6
:1013700042F6E16021E0F4B1FEF73AFF074611487A
:10138000C4E900060026266284F825604020A66293
:1013900084F8240004F1080001F041F8204600F030
:1013A00095FF09490888401C08803846FEF724FF4D
:1013B0002E80BDE8F08145F6C3501080F9E70000AB
:1013C000380000204D555458500000202DE9F04FB2
:1013D0000646624889B01C460078129D90468B46AE
:1013E00010B146F2AE109BE046B1B8F1000F08D044
:1013F000B8F5004F05D045F6256091E045F6C3509D
:101400008EE057493068884202D045F6C45087E0E4
:101410004FF0000A0CB1C4F800A0FEF7E9FE8146C7
:1014200096F825004F4978B1376A0A6897421FD16C
:10143000401C86F825000CB1B06A20604846FEF7D3
:10144000DBFE45F282706BE00868306290F837008E
:1014500086F82400012086F825000CB1B06A2060CF
:101460004846FEF7C9FEA5F800A009B0BDE8F08F18
:101470005FEA084005D54846FEF7BEFE46F2B010CA
:101480004EE03948007828B14846FEF7B5FE46F6EA
:10149000635045E0884697F8370092F83710884245
:1014A0001ED997F83600082835D2DFE800F004137B
:1014B000161613131616384601F028F9D8F800004E
:1014C00090F8370087F8370001F094F8384601F0BB
:1014D000E7F805E087F8371002E0384600F086FFAD
:1014E0005B4604223146684600F00EFF4846FEF790
:1014F00083FE00F0CFF8FEF77BFED8F8001091F8DD
:1015000035207AB1012A13D0022A20D0032A15D01F
:1015100046F62E6117E04846FEF76EFE46F62D6051
:101520002880A2E70CB1096C2160A5F800A00BE0AF
:101530000CB1096C216046F2A91104E00CB1C4F8A9
:1015400000A047F2D9212980FEF756FE8DE70CB1A5
:10155000096C216045F6C251F5E700003800002013
:101560004D555458D00000206C0000202DE9F84F54
:101570000446444815468946007810B146F20E20CC
:1015800011E03CB1080008D0B1F5004F05D045F698
:10159000256008E045F6C35005E03B4920688842D5
:1015A00004D045F6C4501080BDE8F88FFEF720FE49
:1015B000DFF8D8808246216AD8F80000814205D041
:1015C0005046FEF719FE45F2817010E0FEF70EFF5F
:1015D0000646A06294F82500401E10F0FF0084F833
:1015E000250006D05046FEF707FE45F2837028809E
:1015F000DAE7208A04F108074FF0000BB8B3D8F8F7
:10160000001094F8243091F837209A4214D00846FC
:1016100001F07CF8D8F8001094F8240081F8370025
:1016200000F0E8FFD8F8000001F056F8D8F8000004
:10163000174990F837000870386800231A46816807
:10164000216291F8370084F82400012084F82500F5
:101650002046009600F043FF5046FEF7CDFD5FEABE
:10166000094001D400F016F8A5F800B09CE7FFE7A8
:10167000C4F820B05E4684F825B05046FEF7BCFDA5
:101680002E8091E7380000204D555458D00000209E
:1016900052000020154810B50078002824D11448C5
:1016A0000078002820D1FEF7A3FD044600F084FF57
:1016B00010490870104900EB400051F820000F4914
:1016C00008600F490968884209D050F8841F491CF6
:1016D00001600C480168491C0160FEF73AFE204693
:1016E000BDE81040FEF788BD10BD000038000020A6
:1016F0006C00002053000020941A0020D400002029
:10170000D00000209000002070B5044610480078FA
:1017100010B146F6625019E00E480078012802D058
:1017200045F6896012E00C4D2878FA2802D345F27C
:1017300009200BE0FEF75CFD06462878401C287067
:1017400001F00EF83046FEF757FD0020208070BDF6
:1017500038000020390000206C00002070B50446DD
:101760001548007810B146F6655023E0134800781C
:10177000012802D045F689601CE0114D287870B12F
:10178000FEF736FD06462878401E10F0FF00287050
:1017900008D03046FEF730FD46F663500AE046F6C4
:1017A000645007E000F0EAFF3046FEF725FDFFF742
:1017B00071FF0020208070BD38000020390000201B
:1017C0006C00002070B50F4D0446287818B145F61E
:1017D0008A60208070BD00F0EFFE0B4908700B4955
:1017E00008700B4900EB400051F8200009490860DF
:1017F0000949086001202870FEF79AFD43F69920F8
:10180000E7E70000390000205300002052000020CC
:10181000941A0020D4000020D00000202DE9F041CF
:101820000646FEF7E5FC224900250D8021490D60A2
:1018300021490D6021490D6021490D6021490D812B
:10184000FEF7DAFCFEF7D4FC1F490C6816E000BF77
:10185000FEF7CEFCC4F8A85044F86C5F0746256339
:10186000A561A582E5826562A562FEF7BFFD44F829
:10187000200FA4F134008581646A3846FEF7BCFC71
:10188000002CE5D1FEF7B4FC10490C6804E000BF61
:10189000FEF7AEFCA585A469FEF7AEFC002CF7D1DF
:1018A00001F01CFB01F0CEFC3580BDE8F0810000AA
:1018B0007A0000208C000020A0000020C000002042
:1018C00064000020881A00209400002058000020A6
:1018D000F8B5044669461E4800F060FBBDF80000FC
:1018E00028BB6A460021022000F0A8FBBDF80000DA
:1018F000E8B9FEF77DFC174E00253560FEF77CFC4D
:10190000154916480A6803689A4202D9B2FBF3F0F7
:1019100010B90A21B2FBF1F06A46002100F08EFBFB
:1019200069460B4800F048F9BDF8000008B1208076
:10193000F8BDFEF75DFC0A490A4A0D603168116086
:10194000094A01211170FEF757FC2580F8BD0000FF
:10195000301F00207C000020503700083C37000872
:101960008C000020800000208800002002480068D1
:10197000002800D000477047280000202DE9FF4FC5
:1019800083B004464C48DDE91785DDE91096007800
:10199000139F934610B147F24A1025E054B1BBF1B2
:1019A000000F0AD066B14548006887420BD246F660
:1019B000306019E047F2AD1016E047F24F1013E027
:1019C00046F62F6010E01298B84202D346F6316016
:1019D0000AE046F27320B9F1400F05D2B9F13F0F8A
:1019E00006D137498C4203D0288007B0BDE8F08F7C
:1019F000204601F099F84FF0000AA5F800A05FEA30
:101A0000C8700AD05FEA887007D530460021524678
:101A100001E004C0491CB942FBD31298CDE900781B
:101A200006EB80052B4632465846069900F0E2F94F
:101A3000C4F828B00699E1620499216284F83790CD
:101A4000A56020601698A76366626060A4F83C8079
:101A50000020514604EB8002401C116710F0FF008B
:101A6000F8D004F15800149900F028FC204600F04A
:101A70002DF8FEF7BDFB054694F8370000F0BAFDDF
:101A8000204600F029FE204601F010F80D49088894
:101A9000401C08800C4800780128284604D007B074
:101AA000BDE8F04FFEF7A8BBFEF7A6FB07B0BDE808
:101AB000F04FFFF7EFBD0000380000204C37000862
:101AC000D019002098000020390000200249096840
:101AD000002900D0084770471800002070B5044660
:101AE0002D480D46007810B147F24E1004E02B4807
:101AF000844203D147F24C10088070BD2CB9FEF728
:101B000077FB27490C68FEF777FBFEF771FB06466B
:101B100094F83600082838D2DFE800F004082828B6
:101B20000B082828204600F0F1FD02E0204601F0D5
:101B3000B5F904F1580000F0A7FB204600F034F896
:101B4000204600F0C5FF17490888401E088020463F
:101B500000F0EAFFFF2084F836003046FEF74CFB29
:101B600000202880BDE87040FFF794BD94F8340051
:101B70000728DBD2DFE800F00405040505050500B1
:101B8000D4E7204600F07DFCD0E73046FEF734FB7A
:101B900046F62D60288070BD38000020D019002046
:101BA000D00000209800002002490968002900D0D8
:101BB000084770471C00002070B505460E480C46CB
:101BC000007818B147F25510088070BDFEF710FB81
:101BD0001DB10A4909688D4205D1FEF70DFB47F298
:101BE0005710208070BDFEF707FB21462846BDE850
:101BF000704000F0EDBF000038000020D000002051
:101C000002490968002900D00847704720000020D9
:101C10002DE9F0478246434814461E460078884620
:101C200010B146F2AE1006E0080006D0B1F5004F44
:101C300003D045F62560188035E0002704B1276001
:101C4000FEF7D6FA384D81462968486CC8B1401E67
:101C5000804648640CB1086C2060FEF7C7FB296819
:101C60000A6C801AC1F89800D1F89C20824201D2F7
:101C7000C1F89C004846FEF7BFFA37804046BDE8F1
:101C8000F0875FEA084005D54846FEF7B5FA46F208
:101C9000B01007E02548007838B14846FEF7ACFAA6
:101CA00046F6635030800020E9E7002153460722C2
:101CB000084600F029FB4846FEF79EFAFFF7EAFCCB
:101CC000FEF796FA8046286890F8351031B1012960
:101CD00016D003291AD046F62E601BE074B1006CB2
:101CE0002060FEF783FB29680A6C801AC1F898000F
:101CF000D1F89C20824201D2C1F89C0037800AE0D2
:101D00000CB1006C206046F2A91003E004B127601A
:101D100047F2D92030802868446C4046FEF76CFAC0
:101D20002046ACE738000020D00000206C000020E6
:101D300070B50D000646144607D0B5F5004F04D027
:101D400045F625601080002070BDFEF74FFB02466F
:101D5000234629463046BDE8704000F099BF000098
:101D60002DE9F0410546214816460F4600781C46ED
:101D700010B147F2591007E046F2D52027B11EB145
:101D8000FEF736FA1DB104E01880BDE8F08118496D
:101D90000D684FF00008296841B195F83C10C9075B
:101DA0000DD0FEF729FA0020696A14E0FEF724FA44
:101DB000C7F8008047F25210C6F8008007E0FEF72F
:101DC0001BFAC7F8008047F25410C6F80080208044
:101DD000DBE7401C091D0A68002AFAD03860A96BAD
:101DE000081A3060A4F80080CFE700003800002017
:101DF000D000002030B5DDE9035402EB850222F06B
:101E000007024FF0807542E902054A4842F80C0C7F
:101E10004FF0123042F8100C4FF0033042F8140C1F
:101E20004FF0023542F8185DA2F1080060E8071390
:101E30004FF011318161E90041614FF009310161D9
:101E4000A900C1604FF0073181604FF00631416059
:101E50004FF0053140F8041969000160610767D54A
:101E6000021F29061160A0F10801334A0A60091F08
:101E7000324A0A60091F324A0A60091F314A0A6061
:101E8000091F314A0A60091F304A0A60091F304A97
:101E90000A60091F2F4A0A60091F2F4A0A60091F9A
:101EA0002E4A0A60091F2E4A0A60091F2D4A0A603D
:101EB000091F2D4A0A60091F2C4A0A60091F2C4A73
:101EC0000A60091F4FF083420A60091F294A0A600D
:101ED000091F294A0A60091F284A0A60091F284A5F
:101EE0000A60091F274A0A60091F274A0A60091F5A
:101EF000264A0A60091F4FF082420A60091F244ADD
:101F00000A60091F234A0A60091F234A0A60091F41
:101F10004FF081420A60091F6A050A60091F120218
:101F20000A60091F4FF07E520A60002140F8841DAC
:101F300030BD0000792C00080000F8410000F0419D
:101F40000000E8410000E0410000D8410000D0411D
:101F50000000C8410000C0410000B8410000B0418D
:101F60000000A8410000A0410000984100009041FD
:101F700000008841000070410000604100005041B5
:101F800000004041000030410000204100001041AD
:101F90000000E0400000C0400000A040074A127866
:101FA00012B147F25D1004E0054A904203D147F2B6
:101FB0005B100880704700F0B7BE000038000020BA
:101FC000D019002070B5194D286890F83C104907C9
:101FD00002D50068FEF796F9154C206890F83C1081
:101FE000490702D50068FEF79AF91248006800B167
:101FF0008047FEF7FBF929682268914209D0D1F8A1
:102000008C30C31AC1F88830D1F890402344C1F80D
:102010009030C2F88C00084AD1F8A830106883428A
:1020200001D2C1F8A8000020106070BDD0000020CF
:10203000D40000202C000020680000202DE9F04191
:1020400006461D480D461446007810B147F275202B
:1020500023E01A48007810B146F663501DE045B100
:10206000022D06D0042D05D0082D02D045F625609E
:1020700013E086B1FEF7BCF82A46114D0746234609
:102080003146286800F0CCFE208848B13846BDE8CB
:10209000F041FEF7B1B847F27E201080BDE8F08134
:1020A000286800F033FB3846FEF7A6F8FFF7F2FA8F
:1020B00000202080F2E70000380000206C000020A3
:1020C000D000002008B500F01BF86A46002108483F
:1020D000FFF72EFE07490868401E086007D1064832
:1020E0006A460068086000210448FFF721FE08BD29
:1020F0004C1E0020CC000020C8000020301F002013
:1021000002480068002800D00047704730000020D7
:1021100010B5FEF76DF8064A1178491C1170FEF7EC
:102120006BF8FFF7CFFFBDE81040FFF7D7B800000E
:10213000380000204FF0E021401E48610648026848
:1021400022F07F420260086940F0050008610869DA
:1021500040F002000861704720ED00E07047000089
:10216000034A00211160034A11800180704700007A
:102170003C00002040000020074C084DFEF738F8D6
:102180002168491C21602968491C2960FEF734F840
:10219000FEF7DEFFF2E70000340000207C000020A4
:1021A00000B50E4A89B0002111600B2205910691FD
:1021B000CDE907200A480B4A0B4B006812681B68E0
:1021C0000292CDE903013F20CDE900030023074A35
:1021D00007A10C48FFF7D2FB09B000BD3400002076
:1021E00024370008203700081C3700087921000830
:1021F00075432F4F532D4949492049646C6520543C
:1022000061736B00D0190020034A00211160034A5A
:102210001180018070470000440000204800002029
:10222000F0B5164C216859B1154E318859B189B2B3
:10223000491E22688FB2002502F1100329460EE0E4
:1022400045F21E7118E045F21D7115E0E2E8023119
:102250006D1C22F8081BADB242F8041C1033BD42BD
:10226000F4D3116051601181D160064A2368136074
:1022700033889380D18011810180F0BD343700080C
:1022800030370008881A002010B5428992B10A49F7
:1022900003680C681C6043680B60CB8844891B1B77
:1022A000CB808B88448923448B80002141818181AC
:1022B00001604160104610BD881A00200181002194
:1022C0004181818101604160704700000022074B1D
:1022D00005A14261C161196819B181614861186045
:1022E00070478261FBE70000200000004C000020E6
:1022F000034A00211160034A1180018070470000E9
:102300004C000020500000202DE9F041114D0746FF
:102310000C4628680026194680F8342080F835607D
:1023200000F0B0FB64B1FC6004F1080601223946FC
:10233000286800F011F83946304600F075F802E0E0
:102340002868C687066320462968BDE8F04100F08A
:102350001BB80000D000002010B5C287002423461F
:1023600001630EE04B6041F8103B641C41F8103BE8
:10237000A4B241F80C3C21F8083C41F8043C41F877
:10238000180C9442EED310BD38B14268C1F8B420A5
:1023900081688968096AC161704791F83400022830
:1023A00003D0072803D004A002E004A000E005A0A9
:1023B000C1F8B40070470000200000005461736B46
:1023C000205100005461736B2053656D00000000C4
:1023D00005A2C1F8B420816811B18968096A00E0DA
:1023E00001A1C161704700002000000070B580F8B5
:1023F0003710C68F056B0FE0EC68208A083401287F
:1024000007D92946204600F04FF82946204600F01B
:102410000BF8761EB6B22035002EEDD170BD00212E
:10242000016041600181704730B58A68002392F8ED
:10243000374002891AB1521C028102680BE0012266
:1024400002814B600B60016014E0956895F837508D
:10245000A54203D85268002AF7D107E032B11468C8
:1024600054B1C1E900426160116030BD4B60426807
:102470000A605160416030BD1160C1E90032016005
:1024800030BD70B50646C48F056B07E0E868294685
:10249000083000F009F8641EA4B22035002CF5D1F4
:1024A0000020F087306370BD10B502890023012A37
:1024B0000BD00A6862B14C6874B154602260028922
:1024C000521E02814B600B6010BD03604360F6E753
:1024D0004A6813600260F2E753604260EFE7F8B5C4
:1024E0000C46064691F836100025069808294ED26B
:1024F000DFE801F04D4D04044D4D282894F83410C8
:10250000032910D02265A4F85430206436B1204647
:10251000FFF7B7FF21463046FFF75AFF94F8360021
:10252000032806D008E000902146304600F030F83D
:10253000ECE7204600F0B2FC204600F099F884F861
:10254000365020E094F83410032910D02265A4F806
:102550005430206436B12046FFF793FF21463046C1
:10256000FFF736FF94F83600072806D008E0009001
:102570002146304600F00CF8ECE7204600F08EFCD7
:10258000042084F8360084F8355084F83450F8BDBF
:1025900070B50C6B049DC98F0AE0E668864204D1D1
:1025A000C4E904022383E56170BD491E89B2203469
:1025B0000029F2D170BD000010B50024064802E0E9
:1025C0002034E4B2001D01680029F9D00846FDF767
:1025D0001AFE2044C0B210BD1000002000200449A3
:1025E000024600BF41F82020401C0228FAD3704761
:1025F0001000002000F01F0241090120C2F11F025B
:102600009040034A52F82130034342F8213070478A
:102610001000002000F01F0241090120C2F11F023A
:102620009040034A52F82130834342F821307047EA
:1026300010000020034A00211160034A118001802C
:1026400070470000580000205C0000200020074B6D
:10265000014600BF00EB400203EB8202401C1181E7
:102660001160C0B251604028F4D37047941A002022
:1026700010B5044690F83700FFF7BCFF074994F8FF
:10268000370009788842204603D1BDE8104000F0A9
:1026900023B8BDE8104000F003B80000520000204D
:1026A00090F837100B4A01EB410102EB8101002247
:1026B0000B8943B15B1C0B810B68C0E903320A68CC
:1026C00010610860704701230B81C26002610860DD
:1026D00048607047941A002090F837100A4A01EBBE
:1026E000410102EB810100220B893BB15B1C0B8194
:1026F000C2604A680261D0604860704701230B8164
:10270000C26002610860F7E7941A002070B50546C0
:1027100090F83700114900EB400001EB8001D5E94A
:102720000302002442B10B895B1E0B81D06090B183
:1027300002612C61EC6070BD28B10A89521E0A81C9
:1027400004610860F5E70C810C604C6095F8370077
:10275000FFF760FFEDE74A60EBE70000941A002006
:10276000044810B50078012803D1FDF73FFE024967
:10277000086010BD6C000020600000200A4810B501
:10278000007800280ED1FDF731FE08490968401A8B
:1027900007490A68824200D2086006490A688242F4
:1027A00000D2086010BD00006C0000206000002016
:1027B0006400002068000020034A00211160034AE1
:1027C000118001807047000070000020740000201C
:1027D0001CB56E4C6E4E2068450004E028466A46E3
:1027E0000021FFF72BFC30780128F7D16846FFF76E
:1027F00015F8684822680168914206D90A4621689E
:10280000B2FBF1F15FEA010803D100680A21B0FBD5
:10281000F1F8DFF884B1614F42F210795FF0000601
:10282000FDF7E4FD0190FDF7E3FC5D495D4C0A68AE
:1028300022600E60FDF7E0FC5B4823680168994266
:102840002BD95A48814202D24846012215E0584805
:10285000814203D24FF47A700A220EE05548814239
:1028600002D26420024608E05348814203D20A2083
:102870004FF47A7201E001204A46B1FBF2F158436D
:10288000B0FBF1F1A9EB01004C4980B2ABF80000BC
:102890000A88824203D2088001E0ABF80090FFF77B
:1028A00065F80024FDF7A4FC3D680CE0FDF7A0FCF2
:1028B00055F8901FC5E90061FDF79EFC6868044467
:1028C000FDF796FC2D6AFDF797FC002DEED114B3B1
:1028D0003648844202D24D46012015E034488442F5
:1028E00003D24FF47A750A200EE03248844202D2B5
:1028F0006425284608E03048844203D20A254FF474
:102900007A7001E001254846B4FBF0F08246FDF7FD
:102910006FFC3C681EE000250120F7E7D4F8940026
:102920006843B0FBFAF080B2484500D94846A4F8A5
:102930008000B4F88210814201D2A4F8820004F130
:10294000A0026B46111D2046FFF70AFAFDF750FC66
:10295000D4F8B040FDF750FC002CDFD118480178C6
:10296000012903D106706846FEF758FFFDF73EFDCA
:102970000199401A13490A68824200D208606A46E7
:1029800000214046FFF75AFB4AE700003C370008A9
:1029900088000020503700087800002094000020B4
:1029A0007C0000208400002080000020801A0600A7
:1029B00000093D00005A62020084D7177A00002007
:1029C000760000208C00002030B51D4A89B000211F
:1029D00011601C4A11601C4A11601C4A11701C4A8B
:1029E00011701C4A136843B11B4B1C4D1C682D68A9
:1029F000AC4205D246F62C6108E046F62B6105E0B4
:102A0000174C25783F2D04D346F62A61018009B082
:102A100030BD032505910691CDE9075011481B688B
:102A200012680068CDE90120CDE9033120780090DB
:102A300000230D4A0DA11248FEF7A0FFE7E70000B2
:102A40007C000020840000208000002088000020FE
:102A50007600002040370008483700084C3700084F
:102A60003837000844370008D127000875432F4F36
:102A7000532D4949492053746174205461736B008C
:102A8000941D002010B5044631B10A46014606489F
:102A900000F096F9032000E0022084F8360020467A
:102AA000BDE81040FFF732BEAC000020074B00220B
:102AB000C0F8AC20196829B1C0F8B010C1F8AC005A
:102AC00018607047C0F8B020FAE7000094000020BA
:102AD000D0E92B2100234AB181B1C2F8B010C1F86E
:102AE000AC20C0F8B030C0F8AC307047054A116077
:102AF00009B1C1F8AC30C0F8B0307047C2F8B0309E
:102B0000F1E7000094000020044A00211160044A0B
:102B10001180044A11600180704700009400002079
:102B2000980000209000002070B5002505608560A9
:102B30004560C560056145610446856121A0C4E921
:102B400007506562A562E56225642565A4F85450C6
:102B5000294604F15800FFF7B1FBA566E5666567F5
:102B6000A4F87C500020A56704EB8001401C0D6791
:102B700010F0FF00F8D06564C4F89850C4F89C5079
:102B8000A56384F87E50C4F8A450C4F8A050A5876B
:102B9000A564E564A4F88050A4F88250C4F8845079
:102BA000C4F888503434FDF721FCC4E91605656784
:102BB00025706570A5704020E07004A0A567C4E989
:102BC0001F5070BD3F5461736B0000002000000077
:102BD00070B50D460446FDF70BFB06460020288025
:102BE00094F83610082940D2DFE801F00404040408
:102BF0000B1F29333046FDF7FFFA47F253102880A8
:102C00000FE094F87E10491E11F0FF0184F87E1049
:102C100004D184F836002046FFF72AFD3046FDF740
:102C2000EBFABDE87040FEF735BD94F87E00401E1B
:102C300010F0FF0084F87E00F0D1012012E094F83B
:102C40007E00401E10F0FF0084F87E00E6D10220D6
:102C500008E094F87E00401E10F0FF0084F87E002B
:102C6000DCD1032084F83600D8E73046FDF7C4FAFB
:102C700046F62D60288070BD044808B50068FEF750
:102C8000BFFF69460020FEF729FF08BDD0000020E5
:102C90002DE9F8431E46144689460546FDF7A8FA75
:102CA00007460DB91F480568002046F6C5582C6434
:102CB000308095F8360008282BD2DFE800F00404B5
:102CC0000D0D04040D0D6C6C601C1AD0641C38468C
:102CD0006C64FDF791FA23E095F834000728F2D1EF
:102CE00000231A46294618460094FFF7F8FB384699
:102CF0006C6CFDF781FA5FEA094011D4FEF7CAFC5B
:102D00000EE03846FDF778FAA6F800800020BDE80E
:102D1000F8833846FDF770FA46F62D6030800024BF
:102D20002046F4E7D000002070B50D460446FDF7BC
:102D30005FFA0646204804B904680068844208D156
:102D40001E48007828B13046FDF756FA46F6635023
:102D500030E00020288094F836100120082924D281
:102D6000DFE801F0040D16181E1E1E1E042184F853
:102D7000361084F87E002046FFF7C8FC01E00521EC
:102D800009E03046FDF738FABDE87040FEF782BC36
:102D9000062100E0072184F8361084F87E00F0E771
:102DA00014F87E0F401C2070EBE73046FDF724FA44
:102DB00046F62D60288070BDD00000206C000020F9
:102DC00030B50368002433B94C618A64C1E9064018
:102DD000016001210FE09D6C954216D39D694B6106
:102DE0008A6455B1C1E906509C6CA21A9A64996133
:102DF00069618188491C818030BDC1E906409C6CB5
:102E0000A21A9A6499610160F3E7521B1D465B693F
:102E1000002BE0D14C618A64C1E90650E8E700006C
:102E2000F0B51C461B4BDFF868C000251B6847F255
:102E30007E26042A04D0082A08D029B10A4614E0C4
:102E4000CA1A624500D882B985641EE0D0F84CE009
:102E5000A3EB0E078F4202D90A46991804E0CA1B59
:102E600062450BD852B17144C164012180F836101B
:102E700001460948FFF7A4FF2580F0BDB7FBF1F23A
:102E800001FB02E21144C0E912512680F0BD0000AE
:102E90000000FFFF9C000020A400002030B5D0E916
:102EA0000524C369002174B1626122B19461946CFC
:102EB000856C2C44946481619A88521E9A80416189
:102EC0008164C16130BD32B19161946C856C2C44D8
:102ED00094641A60F0E719609980F1E77047000088
:102EE0002DE9F047FDF784F98246FDF77FFA1A4D88
:102EF000074600262C6814B3A06CB046401E4FF065
:102F00000409A06418E0761C94F83600B6B20128D3
:102F100002D0052806D007E084F836802046FFF767
:102F2000A7FB01E084F8369064692C608CB1A88816
:102F3000401EA880C4F81880A06C0028E3D0EE8062
:102F4000FDF754FAC41B5046FDF756F92046BDE87C
:102F5000F087A5F80480F2E7A40000202DE9F047EF
:102F6000FDF746F98246FDF741FA274D0746002650
:102F70002C68DCB3A06C4FF00309401EB046A0647F
:102F800031E0761C94F83600B6B2032802D0072848
:102F900010D020E0C4F85080A4F85480FDF726FA41
:102FA00020642046FFF76DFA2046FFF761FB84F8A6
:102FB00036800CE0C4F85080A4F85480FDF716FA6F
:102FC00020642046FFF75DFA042084F8360084F878
:102FD000359084F8348064692C608CB1A888401ED8
:102FE000A880C4F81880A06C0028CAD0EE80FDF735
:102FF000FDF9C41B5046FDF7FFF82046BDE8F087F9
:10300000A5F80480F2E70000AC0000201CB5114FC9
:10301000114D124E00216B4601AA0846FEF7F8FD3D
:10302000BDF800000028F5D138780128F2D1FDF76D
:10303000DFF82968491C2960FDF7DEF8FFF750FF2B
:103040000446FFF78BFF316820448142E2D23060B2
:10305000E0E70000390000209C000020A0000020D4
:1030600030B51D4A89B0002111601C4A1C4B11600B
:1030700019609180D1801B4A9980D980136843B12F
:10308000194B1A4D1C682D68AC4205D247F213212A
:1030900008E047F2122105E0154C25783F2D04D3B6
:1030A00047F21121018009B030BD0B250591069131
:1030B000CDE9075018680F4B12681B68CDE9030172
:1030C000CDE901232078009000230B4A0BA1104882
:1030D000FEF754FCE7E700009C000020A40000205D
:1030E000AC00002058370008603700084C37000853
:1030F000543700085C3700080D30000875432F4F27
:10310000532D494949205469636B205461736B0006
:103110004C1E002030B50546294889B000240460C3
:1031200028482A492A4A04602748048029480B680D
:103130001BB11268B2FBF3F103E011680A22B1FB84
:10314000F2F10160084624492A460860234825A177
:103150000460234804602748FEF702F92888002805
:1031600015D12548016841B12449254B0A681B68DF
:103170009A4205D247F2483008E047F2473005E06E
:10318000204A13783F2B04D347F24630288009B0F9
:1031900030BD0B23CDE906431B4B089505941B68F6
:1031A00009680068CDE90103CDE9031410780090A7
:1031B0000023164A16A11C48FEF7E0FBE7E70000D3
:1031C000B4000020BC000020B800002068370008D0
:1031D00050370008C8000020CC000020C4000020A8
:1031E000C00000204F5320546D72204D75746578D7
:1031F00000000000041F00206C370008743700082E
:103200004C3700086437000870370008493200085E
:1032100075432F4F532D4949492054696D657220DC
:103220005461736B00000000301F00200EB501A830
:103230000022009002AB11460148FEF7C7F80EBD10
:10324000041F0020704700001CB5DFF88880DFF8FD
:103250008890DFF888A000216B4601AA0846FEF797
:10326000D7FCFFF7E3FFFDF7C1F8D8F800100646DA
:10327000491CC8F800100327D9F8004018E0684638
:10328000FEF742FAA0692569401EA0610CD1A08C0E
:1032900002281BD0204600F023F884F82670A2688C
:1032A00012B12046E16890472C466846FEF756FA70
:1032B000002CE4D1FDF79AF8841B00F02FF8DAF81F
:1032C0000010A142C7D2CAF80040C4E7206AA0613A
:1032D000E5E70000C4000020BC000020C000002082
:1032E0000C4B10B51C6800220169844203D119609F
:1032F00029B14A6103E04369196101B14B610121C0
:1033000080F826100449026142610888401E088046
:1033100010BD0000BC000020B800002008B56A46BF
:1033200000210248FEF722F908BD0000041F00201A
:103330007047000030B593B030216846FCF7A6FF17
:1033400014210CA8FCF7A2FF1E480025016841F0DB
:1033500080510160006800F0805011901A480168A7
:1033600041F4804101600068022400F48040119023
:1033700001200090000401908001CDE90640082062
:1033800008904FF4A870CDE9090404200B9068461A
:10339000FDF706FB08B172B6FEE70CA90F2081E825
:1033A00031004FF4A0500F904FF480501090052141
:1033B0000CA8FDF7E5F9002801D072B6FEE713B0BE
:1033C00030BD0000403802400070004002480168F3
:1033D00041F470010160704788ED00E00148FDF79D
:1033E00006BD000020010020F0B50268254C264DE6
:1033F000264E274F274B4FF0804CA04209D0604506
:1034000007D0A84205D0B04203D0B84201D09842BC
:1034100004D122F0700E4A6842EA0E02A0421BD08C
:10342000604519D0A84217D0B04215D0B84213D089
:10343000984211D0184DA8420ED0184DA8420BD07A
:10344000174DA84208D0174DA84205D0164DA842E6
:1034500002D0164DA84203D122F44075CA682A430F
:103460004D6922F080022A4302608A68C2620A68BB
:103470008262A04201D0984201D109690163012111
:103480004161F0BD00000140000400400008004020
:10349000000C004000040140004001400044014095
:1034A0000048014000180040001C0040002000407F
:1034B00070B5044600680169E26821F44051114387
:1034C00001612169A068E269084361691143084309
:1034D0002168CA6849F20C639A430243CA602068B3
:1034E0004169A26921F44071114341613149206869
:1034F000884202D03049884202D1FDF711FA01E03A
:10350000FDF7FEF9E2690023192164253226B2F5A0
:10351000004F626828D0A0FB0101930F9200FCF7D6
:103520007DFE0146B0FBF5F06FF01802504301EB51
:10353000800006EB0010B0FBF5F000F0F002B1FBEC
:10354000F5F002EB0012B1FBF5F06FF018035843F1
:1035500001EB800006EB0010B0FBF5F000F00F006F
:1035600021681044886070BDA0FB010192185B4186
:10357000FCF754FE0146B0FBF5F00201B1FBF5F09B
:103580006FF01803584301EB800006EBC000B0FB5E
:10359000F5F000F0F80002EB4002B1FBF5F0584303
:1035A00001EB800006EBC000B0FBF5F000F0070077
:1035B000D6E700000010014000140140FEE70907B3
:1035C000090E002804DB00F1E02080F800147047A9
:1035D00000F00F0000F1E02080F8141D704702E0B9
:1035E00008C8121F08C1002AFAD17047704700208E
:1035F00001E001C1121F002AFBD1704708B5074D39
:103600004FF400744FF47A7621462846FCF7F0FF19
:103610006A4600213046FEF711FDF5E7001402402E
:1036200008B5074D4FF480644FF47A76214628465A
:10363000FCF7DEFF6A4600213046FEF7FFFCF5E7A7
:1036400000140240FCF7F0FFFFF774FEFDF7F8FCF2
:10365000FDF75EFDFDF72CFDFEE700002DE9F043D0
:103660008BB0FCF7B1FE09A8FEF732F9FCF7C0FDFC
:1036700000240326CDE90646814609AD4FF00C082B
:1036800015490895059404208DE803018027124808
:10369000CDE903742346114A11A1B838FEF76EF93B
:1036A000CDE9064611490895059405208DE80301EA
:1036B0000E48CDE9037400230D4A0EA1B838FEF779
:1036C0005DF94846FCF798FD09A90D48FEF706FA92
:1036D0000BB0BDE8F0830000D8040020FD350008E1
:1036E0006C656430207461736B00000090070020EB
:1036F000213600086C656431207461736B00000032
:103700006801002000000000000000000102030426
:1037100006070809000000000102030490090020C8
:103720000C00000080000000900B002080000000D2
:1037300064000000900D00200A0000000A00000054
:10374000D01300200C0000008000000040000000AA
:10375000E803000001000000D01500200C0000006C
:10376000800000000B00000064000000D017002063
:103770000C000000800000009837000800000020C6
:10378000DC000000DE35000874380008DC00002092
:103790000C230000EE3500080100000010000000BE
:1037A000000000000024F400000000000000000001
:1037B0000000000000000000000000000000000009
:1037C00000000000000000000000000000000000F9
:1037D00000000000000000000000000000000000E9
:1037E00000000000000000000000000000000000D9
:1037F00000000000000000000000000000000000C9
:1038000000000000000000000000000000000000B8
:1038100000000000000000000000000000000000A8
:103820000000000000000000000000000000000098
:103830000000000000000000000000000000000088
:103840000000000000000000000000000000000078
:103850000000000000000000000000000000000068
:103860000000000000000000000000000000000058
:043870000000000054
:040000050800018965
:00000001FF
